{
  "transactions": [
    {
      "hash": "0xed7342c2600d600a22309c10e1cb32f852537d8a6fc6ca26fe3448d0ea255417",
      "transactionType": "CALL",
      "contractName": null,
      "contractAddress": "0xee93d1909ba7377cfa4e2831cdae258553d051bc",
      "function": "createRound(uint256,uint256,uint256[])",
      "arguments": [
        "1731686400",
        "1731772800",
        "[6880000000000000000, 8880000000000000000, 18880000000000000000]"
      ],
      "transaction": {
        "from": "0xbebaf2a9ad714feb9dd151d81dd6d61ae0535646",
        "to": "0xee93d1909ba7377cfa4e2831cdae258553d051bc",
        "gas": "0x416f8",
        "value": "0x0",
        "input": "0xc61788fa0000000000000000000000000000000000000000000000000000000067377000000000000000000000000000000000000000000000000000000000006738c180000000000000000000000000000000000000000000000000000000000000006000000000000000000000000000000000000000000000000000000000000000030000000000000000000000000000000000000000000000005f7aab8c56b000000000000000000000000000000000000000000000000000007b3c18f3a578000000000000000000000000000000000000000000000000000106033bf82f600000",
        "nonce": "0x8",
        "chainId": "0xaef3"
      },
      "additionalContracts": [],
      "isFixedGasLimit": false
    },
    {
      "hash": "0x185402ef8a5d8cfbae8d3e5bb97463777ff1b91572a5598151f1d55f2373db2d",
      "transactionType": "CALL",
      "contractName": null,
      "contractAddress": "0xee93d1909ba7377cfa4e2831cdae258553d051bc",
      "function": "settleRound(uint256,bytes32)",
      "arguments": [
        "1",
        "0x0000000000000000000000000000000000000000000000000000000000000000"
      ],
      "transaction": {
        "from": "0xbebaf2a9ad714feb9dd151d81dd6d61ae0535646",
        "to": "0xee93d1909ba7377cfa4e2831cdae258553d051bc",
        "gas": "0x2086d",
        "value": "0x0",
        "input": "0x68eba06f00000000000000000000000000000000000000000000000000000000000000010000000000000000000000000000000000000000000000000000000000000000",
        "nonce": "0x9",
        "chainId": "0xaef3"
      },
      "additionalContracts": [],
      "isFixedGasLimit": false
    },
    {
      "hash": "0x408864370128028be1836fb2c6ecdb67caa6c4c60c3ca1da73323c493a0e2cd7",
      "transactionType": "CALL",
      "contractName": null,
      "contractAddress": "0xee93d1909ba7377cfa4e2831cdae258553d051bc",
      "function": "claimReward(uint256,uint256,bytes32[])",
      "arguments": [
        "1",
        "1",
        "[0x0000000000000000000000000000000000000000000000000000000000000000]"
      ],
      "transaction": {
        "from": "0xbebaf2a9ad714feb9dd151d81dd6d61ae0535646",
        "to": "0xee93d1909ba7377cfa4e2831cdae258553d051bc",
        "gas": "0x10516",
        "value": "0x0",
        "input": "0x9821f5f200000000000000000000000000000000000000000000000000000000000000010000000000000000000000000000000000000000000000000000000000000001000000000000000000000000000000000000000000000000000000000000006000000000000000000000000000000000000000000000000000000000000000010000000000000000000000000000000000000000000000000000000000000000",
        "nonce": "0xa",
        "chainId": "0xaef3"
      },
      "additionalContracts": [],
      "isFixedGasLimit": false
    }
  ],
  "receipts": [
    {
      "status": "0x1",
      "cumulativeGasUsed": "0x3a128",
      "logs": [
        {
          "address": "0xee93d1909ba7377cfa4e2831cdae258553d051bc",
          "topics": [
            "0xd3fadabd429134e82a4911eff31cb4ba085aa65859a00751002f5f6aafedc0a4",
            "0x0000000000000000000000000000000000000000000000000000000000000001"
          ],
          "data": "0x0000000000000000000000000000000000000000000000000000000067377000000000000000000000000000000000000000000000000000000000006738c1800000000000000000000000000000000000000000000000005f7aab8c56b000000000000000000000000000000000000000000000000000007b3c18f3a578000000000000000000000000000000000000000000000000000106033bf82f600000",
          "blockHash": "0x1d1dcf799413484e7ba57d564441eeb1b0c5ad76e37d5c036a1b13507634796d",
          "blockNumber": "0x1d65833",
          "transactionHash": "0xed7342c2600d600a22309c10e1cb32f852537d8a6fc6ca26fe3448d0ea255417",
          "transactionIndex": "0x1",
          "logIndex": "0x0",
          "removed": false
        }
      ],
      "logsBloom": "0x00000000000000000000000000000000000000000000000000000000000000000000000000000000000000000800000000000000000000000000000000040004000000000000000000000000000000000010000000040000000000000000000000000000000000080000000000000000000000000000000000000000000000008000000000000000000000000000000000000000000000000000000000000000000000000000000008000000000000000000000000000000000000000000000000000000000000000000000000000000000000000000000000000000000040000000000000000000000000000000000000000000000000000000000000000000",
      "type": "0x0",
      "transactionHash": "0xed7342c2600d600a22309c10e1cb32f852537d8a6fc6ca26fe3448d0ea255417",
      "transactionIndex": "0x1",
      "blockHash": "0x1d1dcf799413484e7ba57d564441eeb1b0c5ad76e37d5c036a1b13507634796d",
      "blockNumber": "0x1d65833",
      "gasUsed": "0x2f5fe",
      "effectiveGasPrice": "0x5d22cfc40",
      "from": "0xbebaf2a9ad714feb9dd151d81dd6d61ae0535646",
      "to": "0xee93d1909ba7377cfa4e2831cdae258553d051bc",
      "contractAddress": null,
      "l1BaseFeeScalar": "0x558",
      "l1BlobBaseFee": "0x1",
      "l1BlobBaseFeeScalar": "0xc5fc5",
      "l1Fee": "0x79",
      "l1GasPrice": "0xc",
      "l1GasUsed": "0x710"
    },
    {
      "status": "0x1",
      "cumulativeGasUsed": "0x519f0",
      "logs": [
        {
          "address": "0xee93d1909ba7377cfa4e2831cdae258553d051bc",
          "topics": [
            "0x03e8a4f56d46193161e46e470759c85ad86e6342f38c53206e51662df10c510d",
            "0x0000000000000000000000000000000000000000000000000000000000000001"
          ],
          "data": "0x000000000000000000000000000000000000000000000000000000000000000300000000000000000000000000000000000000000000000000000000000000000000000000000000000000000000000000000000000000000000000000000009",
          "blockHash": "0x1d1dcf799413484e7ba57d564441eeb1b0c5ad76e37d5c036a1b13507634796d",
          "blockNumber": "0x1d65833",
          "transactionHash": "0x185402ef8a5d8cfbae8d3e5bb97463777ff1b91572a5598151f1d55f2373db2d",
          "transactionIndex": "0x2",
          "logIndex": "0x1",
          "removed": false
        }
      ],
      "logsBloom": "0x00000000000000000000000000000000000000000000000000000000000000000000000000000000000000000000000000000000000000000000000000040004000000000000000000000000000000000010000000040000000000000000000000000000000000000000000000000000000000000000000000000000000000008000000000000000000000000000000000000000000000000000000000000000020000000000000000000000002000000000000000000000000000000000000000000000000000000000004000000000000000000000000000000000000040000000000000000000000000000000000000000000000000000000000000000000",
      "type": "0x0",
      "transactionHash": "0x185402ef8a5d8cfbae8d3e5bb97463777ff1b91572a5598151f1d55f2373db2d",
      "transactionIndex": "0x2",
      "blockHash": "0x1d1dcf799413484e7ba57d564441eeb1b0c5ad76e37d5c036a1b13507634796d",
      "blockNumber": "0x1d65833",
      "gasUsed": "0x178c8",
      "effectiveGasPrice": "0x5d22cfc40",
      "from": "0xbebaf2a9ad714feb9dd151d81dd6d61ae0535646",
      "to": "0xee93d1909ba7377cfa4e2831cdae258553d051bc",
      "contractAddress": null,
      "l1BaseFeeScalar": "0x558",
      "l1BlobBaseFee": "0x1",
      "l1BlobBaseFeeScalar": "0xc5fc5",
      "l1Fee": "0x6b",
      "l1GasPrice": "0xc",
      "l1GasUsed": "0x640"
    },
    {
      "status": "0x1",
      "cumulativeGasUsed": "0x422ac",
      "logs": [
        {
          "address": "0x2ec5cfde6f37029aa8cc018ed71cf4ef67c704ae",
          "topics": [
            "0xddf252ad1be2c89b69c2b068fc378daa952ba7f163c4a11628f55a4df523b3ef",
            "0x000000000000000000000000ee93d1909ba7377cfa4e2831cdae258553d051bc",
            "0x000000000000000000000000bebaf2a9ad714feb9dd151d81dd6d61ae0535646"
          ],
          "data": "0x0000000000000000000000000000000000000000000000007b3c18f3a5780000",
          "blockHash": "0x7bc7a20007594eca8b451c671d8260153c7370d2709bd2c012017e408c01b1d2",
          "blockNumber": "0x1d65834",
          "transactionHash": "0x408864370128028be1836fb2c6ecdb67caa6c4c60c3ca1da73323c493a0e2cd7",
          "transactionIndex": "0x3",
          "logIndex": "0x4",
          "removed": false
        },
        {
          "address": "0xee93d1909ba7377cfa4e2831cdae258553d051bc",
          "topics": [
            "0xfc6ecd966b430510beae9124efe7dd517ed5286d7ed0ae258f8556c7a9765a44",
            "0x0000000000000000000000000000000000000000000000000000000000000001",
            "0x000000000000000000000000bebaf2a9ad714feb9dd151d81dd6d61ae0535646"
          ],
          "data": "0x00000000000000000000000000000000000000000000000000000000000000010000000000000000000000000000000000000000000000007b3c18f3a5780000",
          "blockHash": "0x7bc7a20007594eca8b451c671d8260153c7370d2709bd2c012017e408c01b1d2",
          "blockNumber": "0x1d65834",
          "transactionHash": "0x408864370128028be1836fb2c6ecdb67caa6c4c60c3ca1da73323c493a0e2cd7",
          "transactionIndex": "0x3",
          "logIndex": "0x5",
          "removed": false
        }
      ],
      "logsBloom": "0x00000000000000000000000000000000000000000000000000000000000000000000000000000000000080000000000001000000000000000000000000440004000000000000000000200008000040000110000000040000000000080000000000000000000000000000000040000000000000000000000000000010000000008000000000000000000000000000000000000000000000000000000000000000000000000008000000000000000000000000000002000000000000000000000000000002000000000000000004000000000000000000000000000000000040000200000000000000000000000000000000000000000000000000000000000000",
      "type": "0x0",
      "transactionHash": "0x408864370128028be1836fb2c6ecdb67caa6c4c60c3ca1da73323c493a0e2cd7",
      "transactionIndex": "0x3",
      "blockHash": "0x7bc7a20007594eca8b451c671d8260153c7370d2709bd2c012017e408c01b1d2",
      "blockNumber": "0x1d65834",
      "gasUsed": "0xbd06",
      "effectiveGasPrice": "0x5d22cfc40",
      "from": "0xbebaf2a9ad714feb9dd151d81dd6d61ae0535646",
      "to": "0xee93d1909ba7377cfa4e2831cdae258553d051bc",
      "contractAddress": null,
      "l1BaseFeeScalar": "0x558",
      "l1BlobBaseFee": "0x1",
      "l1BlobBaseFeeScalar": "0xc5fc5",
      "l1Fee": "0x6b",
      "l1GasPrice": "0xc",
      "l1GasUsed": "0x640"
    }
  ],
  "libraries": [],
  "pending": [],
  "returns": {},
  "timestamp": 1731779825,
  "chain": 44787,
  "commit": "556dc15"
}