{
  "transactions": [
    {
      "hash": "0xc80766a442218ed77ae1bb7397922cef56d28974bc2c283d40fa8866be36c6a9",
      "transactionType": "CALL",
      "contractName": null,
      "contractAddress": "0x0c7f1caeb6365a417805574fb202551c6479e888",
      "function": "settleRound(uint256,bytes32)",
      "arguments": [
        "1",
        "0x0000000000000000000000000000000000000000000000000000000000000000"
      ],
      "transaction": {
        "from": "0xbebaf2a9ad714feb9dd151d81dd6d61ae0535646",
        "to": "0x0c7f1caeb6365a417805574fb202551c6479e888",
        "gas": "0x273cc",
        "value": "0x0",
        "input": "0x68eba06f00000000000000000000000000000000000000000000000000000000000000010000000000000000000000000000000000000000000000000000000000000000",
        "nonce": "0x22",
        "chainId": "0x14a34"
      },
      "additionalContracts": [],
      "isFixedGasLimit": false
    }
  ],
  "receipts": [
    {
      "status": "0x1",
      "cumulativeGasUsed": "0xd20685",
      "logs": [
        {
          "address": "0x0c7f1caeb6365a417805574fb202551c6479e888",
          "topics": [
            "0x03e8a4f56d46193161e46e470759c85ad86e6342f38c53206e51662df10c510d",
            "0x0000000000000000000000000000000000000000000000000000000000000001"
          ],
          "data": "0x000000000000000000000000000000000000000000000000000000000000000200000000000000000000000000000000000000000000000000000000000000000000000000000000000000000000000000000000000000000000000000000009",
          "blockHash": "0x62d3cb95127ae5293eca0705ff44b930842802b847da75405c6f5ff3c2f838cf",
          "blockNumber": "0x112a25a",
          "transactionHash": "0xc80766a442218ed77ae1bb7397922cef56d28974bc2c283d40fa8866be36c6a9",
          "transactionIndex": "0x7",
          "logIndex": "0x195",
          "removed": false
        }
      ],
      "logsBloom": "0x00000000000000000000000000000000000000000000000000000000000000000000000000000000000000000002200000000000000000000000000000040000000000000000000000000000000000000000000000040000000000000000000000000000000000000000000000000000000000000000000000000000000000000000000000000000000000000000000000000000000000000000000000000000020001000000000000000000002000000000000000000000000000000000000000000000000000000000004000000000000000000000000000000000000040000000000000000000000000000000000000000000000000000000000000000000",
      "type": "0x0",
      "transactionHash": "0xc80766a442218ed77ae1bb7397922cef56d28974bc2c283d40fa8866be36c6a9",
      "transactionIndex": "0x7",
      "blockHash": "0x62d3cb95127ae5293eca0705ff44b930842802b847da75405c6f5ff3c2f838cf",
      "blockNumber": "0x112a25a",
      "gasUsed": "0x178c8",
      "effectiveGasPrice": "0xf4346",
      "from": "0xbebaf2a9ad714feb9dd151d81dd6d61ae0535646",
      "to": "0x0c7f1caeb6365a417805574fb202551c6479e888",
      "contractAddress": null,
      "l1BaseFeeScalar": "0x44d",
      "l1BlobBaseFee": "0x1",
      "l1BlobBaseFeeScalar": "0xa118b",
      "l1Fee": "0x503fcbc9",
      "l1GasPrice": "0x2d8e024d",
      "l1GasUsed": "0x640"
    }
  ],
  "libraries": [],
  "pending": [],
  "returns": {},
  "timestamp": 1731765140,
  "chain": 84532,
  "commit": "556dc15"
}