{
  "transactions": [
    {
      "hash": "0xf3b86cc4a1c3880da87b798594202bd8837f0d621f5927dff6eab01e805e8834",
      "transactionType": "CALL",
      "contractName": null,
      "contractAddress": "0x0c7f1caeb6365a417805574fb202551c6479e888",
      "function": "createRound(uint256,uint256,uint256[])",
      "arguments": [
        "1731686400",
        "1731772800",
        "[3000000000000000000, 6000000000000000000, 9000000000000000000]"
      ],
      "transaction": {
        "from": "0xbebaf2a9ad714feb9dd151d81dd6d61ae0535646",
        "to": "0x0c7f1caeb6365a417805574fb202551c6479e888",
        "gas": "0x4547e",
        "value": "0x0",
        "input": "0xc61788fa0000000000000000000000000000000000000000000000000000000067377000000000000000000000000000000000000000000000000000000000006738c1800000000000000000000000000000000000000000000000000000000000000060000000000000000000000000000000000000000000000000000000000000000300000000000000000000000000000000000000000000000029a2241af62c000000000000000000000000000000000000000000000000000053444835ec5800000000000000000000000000000000000000000000000000007ce66c50e2840000",
        "nonce": "0x21",
        "chainId": "0x14a34"
      },
      "additionalContracts": [],
      "isFixedGasLimit": false
    }
  ],
  "receipts": [
    {
      "status": "0x1",
      "cumulativeGasUsed": "0x50d24",
      "logs": [
        {
          "address": "0x0c7f1caeb6365a417805574fb202551c6479e888",
          "topics": [
            "0xd3fadabd429134e82a4911eff31cb4ba085aa65859a00751002f5f6aafedc0a4",
            "0x0000000000000000000000000000000000000000000000000000000000000001"
          ],
          "data": "0x0000000000000000000000000000000000000000000000000000000067377000000000000000000000000000000000000000000000000000000000006738c18000000000000000000000000000000000000000000000000029a2241af62c000000000000000000000000000000000000000000000000000053444835ec5800000000000000000000000000000000000000000000000000007ce66c50e2840000",
          "blockHash": "0x4ca44503dbd32066c82c3c0321279819a2eb95c3a99391694023ee2267e83ab1",
          "blockNumber": "0x112a230",
          "transactionHash": "0xf3b86cc4a1c3880da87b798594202bd8837f0d621f5927dff6eab01e805e8834",
          "transactionIndex": "0x2",
          "logIndex": "0x1",
          "removed": false
        }
      ],
      "logsBloom": "0x00000000000000000000000000000000000000000000000000000000000000000000000000000000000000000802200000000000000000000000000000040000000000000000000000000000000000000000000000040000000000000000000000000000000000080000000000000000000000000000000000000000000000000000000000000000000000000000000000000000000000000000000000000000000001000000000008000000000000000000000000000000000000000000000000000000000000000000000000000000000000000000000000000000000040000000000000000000000000000000000000000000000000000000000000000000",
      "type": "0x0",
      "transactionHash": "0xf3b86cc4a1c3880da87b798594202bd8837f0d621f5927dff6eab01e805e8834",
      "transactionIndex": "0x2",
      "blockHash": "0x4ca44503dbd32066c82c3c0321279819a2eb95c3a99391694023ee2267e83ab1",
      "blockNumber": "0x112a230",
      "gasUsed": "0x2f5f2",
      "effectiveGasPrice": "0xf4345",
      "from": "0xbebaf2a9ad714feb9dd151d81dd6d61ae0535646",
      "to": "0x0c7f1caeb6365a417805574fb202551c6479e888",
      "contractAddress": null,
      "l1BaseFeeScalar": "0x44d",
      "l1BlobBaseFee": "0x1",
      "l1BlobBaseFeeScalar": "0xa118b",
      "l1Fee": "0x60fd2583",
      "l1GasPrice": "0x31d40c76",
      "l1GasUsed": "0x6e7"
    }
  ],
  "libraries": [],
  "pending": [],
  "returns": {},
  "timestamp": 1731765061,
  "chain": 84532,
  "commit": "556dc15"
}