{
  "transactions": [
    {
      "hash": "0xc7e9179ef2a2c17587f24370ddf0c0d46f90b78ff7fabaf917c05b454b9cf7b1",
      "transactionType": "CALL",
      "contractName": null,
      "contractAddress": "0x0c7f1caeb6365a417805574fb202551c6479e888",
      "function": "claimReward(uint256,uint256,bytes32[])",
      "arguments": [
        "1",
        "1",
        "[0x0000000000000000000000000000000000000000000000000000000000000000]"
      ],
      "transaction": {
        "from": "0xbebaf2a9ad714feb9dd151d81dd6d61ae0535646",
        "to": "0x0c7f1caeb6365a417805574fb202551c6479e888",
        "gas": "0x10516",
        "value": "0x0",
        "input": "0x9821f5f200000000000000000000000000000000000000000000000000000000000000010000000000000000000000000000000000000000000000000000000000000001000000000000000000000000000000000000000000000000000000000000006000000000000000000000000000000000000000000000000000000000000000010000000000000000000000000000000000000000000000000000000000000000",
        "nonce": "0x23",
        "chainId": "0x14a34"
      },
      "additionalContracts": [],
      "isFixedGasLimit": false
    }
  ],
  "receipts": [
    {
      "status": "0x1",
      "cumulativeGasUsed": "0x6d1ad",
      "logs": [
        {
          "address": "0xa7ab21686d40aa35cb51137a795d84a57352f593",
          "topics": [
            "0xddf252ad1be2c89b69c2b068fc378daa952ba7f163c4a11628f55a4df523b3ef",
            "0x0000000000000000000000000c7f1caeb6365a417805574fb202551c6479e888",
            "0x000000000000000000000000bebaf2a9ad714feb9dd151d81dd6d61ae0535646"
          ],
          "data": "0x00000000000000000000000000000000000000000000000053444835ec580000",
          "blockHash": "0x36569c74ad5352e1b837e659c7daaaaa401016f7dbe3aa202258d310ec7a1441",
          "blockNumber": "0x112a863",
          "transactionHash": "0xc7e9179ef2a2c17587f24370ddf0c0d46f90b78ff7fabaf917c05b454b9cf7b1",
          "transactionIndex": "0x8",
          "logIndex": "0x7",
          "removed": false
        },
        {
          "address": "0x0c7f1caeb6365a417805574fb202551c6479e888",
          "topics": [
            "0xfc6ecd966b430510beae9124efe7dd517ed5286d7ed0ae258f8556c7a9765a44",
            "0x0000000000000000000000000000000000000000000000000000000000000001",
            "0x000000000000000000000000bebaf2a9ad714feb9dd151d81dd6d61ae0535646"
          ],
          "data": "0x000000000000000000000000000000000000000000000000000000000000000100000000000000000000000000000000000000000000000053444835ec580000",
          "blockHash": "0x36569c74ad5352e1b837e659c7daaaaa401016f7dbe3aa202258d310ec7a1441",
          "blockNumber": "0x112a863",
          "transactionHash": "0xc7e9179ef2a2c17587f24370ddf0c0d46f90b78ff7fabaf917c05b454b9cf7b1",
          "transactionIndex": "0x8",
          "logIndex": "0x8",
          "removed": false
        }
      ],
      "logsBloom": "0x00000000000000000000000000000000000000000000000000000000000000000000000000000000000000000002200000000000000000000000000000440000000000000000000000000008000040000000000000040000000000080000000000000000000000000000000000000000000000000000000000000010000000000000000000000000040000000000000000000000000000000000000000000000002001000008000000000000000000000000000000000000000000000000000000000002000000000008000004000020000000000000000000008000000040000200000000000000000000000000000000000000000000000800000000000000",
      "type": "0x0",
      "transactionHash": "0xc7e9179ef2a2c17587f24370ddf0c0d46f90b78ff7fabaf917c05b454b9cf7b1",
      "transactionIndex": "0x8",
      "blockHash": "0x36569c74ad5352e1b837e659c7daaaaa401016f7dbe3aa202258d310ec7a1441",
      "blockNumber": "0x112a863",
      "gasUsed": "0xbd06",
      "effectiveGasPrice": "0xf4346",
      "from": "0xbebaf2a9ad714feb9dd151d81dd6d61ae0535646",
      "to": "0x0c7f1caeb6365a417805574fb202551c6479e888",
      "contractAddress": null,
      "l1BaseFeeScalar": "0x44d",
      "l1BlobBaseFee": "0x1",
      "l1BlobBaseFeeScalar": "0xa118b",
      "l1Fee": "0x76b734ea",
      "l1GasPrice": "0x43640bfd",
      "l1GasUsed": "0x640"
    }
  ],
  "libraries": [],
  "pending": [],
  "returns": {},
  "timestamp": 1731768237,
  "chain": 84532,
  "commit": "556dc15"
}