{
  "transactions": [
    {
      "hash": "0xbfe1dfb6e7a9ee81ab2f52ebf81f3a396865f93d3caac3b4dc38178b0a8601c4",
      "transactionType": "CALL",
      "contractName": null,
      "contractAddress": "0xa3b865dc7c87b49919b592396feb203c364c9537",
      "function": "createRound(uint256,uint256,uint256[])",
      "arguments": [
        "1731686400",
        "1731772800",
        "[6880000000000000000, 8880000000000000000, 18880000000000000000]"
      ],
      "transaction": {
        "from": "0xbebaf2a9ad714feb9dd151d81dd6d61ae0535646",
        "to": "0xa3b865dc7c87b49919b592396feb203c364c9537",
        "gas": "0x416f8",
        "value": "0x0",
        "input": "0xc61788fa0000000000000000000000000000000000000000000000000000000067377000000000000000000000000000000000000000000000000000000000006738c180000000000000000000000000000000000000000000000000000000000000006000000000000000000000000000000000000000000000000000000000000000030000000000000000000000000000000000000000000000005f7aab8c56b000000000000000000000000000000000000000000000000000007b3c18f3a578000000000000000000000000000000000000000000000000000106033bf82f600000",
        "nonce": "0x2a",
        "chainId": "0x14a34"
      },
      "additionalContracts": [],
      "isFixedGasLimit": false
    },
    {
      "hash": "0x12a8270ab38b8c9d5d1c5173c07d7528eadca6049b60015ab28d0dd483a2fd4f",
      "transactionType": "CALL",
      "contractName": null,
      "contractAddress": "0xa3b865dc7c87b49919b592396feb203c364c9537",
      "function": "settleRound(uint256,bytes32)",
      "arguments": [
        "1",
        "0x0000000000000000000000000000000000000000000000000000000000000000"
      ],
      "transaction": {
        "from": "0xbebaf2a9ad714feb9dd151d81dd6d61ae0535646",
        "to": "0xa3b865dc7c87b49919b592396feb203c364c9537",
        "gas": "0x2086d",
        "value": "0x0",
        "input": "0x68eba06f00000000000000000000000000000000000000000000000000000000000000010000000000000000000000000000000000000000000000000000000000000000",
        "nonce": "0x2b",
        "chainId": "0x14a34"
      },
      "additionalContracts": [],
      "isFixedGasLimit": false
    },
    {
      "hash": "0xf16dec8a271de4e7418142990806641346b72965bd24782dbd58dcc6aef1b187",
      "transactionType": "CALL",
      "contractName": null,
      "contractAddress": "0xa3b865dc7c87b49919b592396feb203c364c9537",
      "function": "claimReward(address,uint256,uint256,bytes32[])",
      "arguments": [
        "0xBEbAF2a9ad714fEb9Dd151d81Dd6d61Ae0535646",
        "1",
        "1",
        "[0x0000000000000000000000000000000000000000000000000000000000000000]"
      ],
      "transaction": {
        "from": "0xbebaf2a9ad714feb9dd151d81dd6d61ae0535646",
        "to": "0xa3b865dc7c87b49919b592396feb203c364c9537",
        "gas": "0x1081e",
        "value": "0x0",
        "input": "0x7df28653000000000000000000000000bebaf2a9ad714feb9dd151d81dd6d61ae053564600000000000000000000000000000000000000000000000000000000000000010000000000000000000000000000000000000000000000000000000000000001000000000000000000000000000000000000000000000000000000000000008000000000000000000000000000000000000000000000000000000000000000010000000000000000000000000000000000000000000000000000000000000000",
        "nonce": "0x2c",
        "chainId": "0x14a34"
      },
      "additionalContracts": [],
      "isFixedGasLimit": false
    }
  ],
  "receipts": [
    {
      "status": "0x1",
      "cumulativeGasUsed": "0xd3859",
      "logs": [
        {
          "address": "0xa3b865dc7c87b49919b592396feb203c364c9537",
          "topics": [
            "0xd3fadabd429134e82a4911eff31cb4ba085aa65859a00751002f5f6aafedc0a4",
            "0x0000000000000000000000000000000000000000000000000000000000000001"
          ],
          "data": "0x0000000000000000000000000000000000000000000000000000000067377000000000000000000000000000000000000000000000000000000000006738c1800000000000000000000000000000000000000000000000005f7aab8c56b000000000000000000000000000000000000000000000000000007b3c18f3a578000000000000000000000000000000000000000000000000000106033bf82f600000",
          "blockHash": "0x044f8839ee1efa705a31848517c74d0790a69b0aedd872f462d7f9e5f476446e",
          "blockNumber": "0x112b905",
          "transactionHash": "0xbfe1dfb6e7a9ee81ab2f52ebf81f3a396865f93d3caac3b4dc38178b0a8601c4",
          "transactionIndex": "0x6",
          "logIndex": "0xc",
          "removed": false
        }
      ],
      "logsBloom": "0x00000000000000000000000000000000000000000000000000000000000100000000000000000000000000000800000000000000000000000000000000040000000000000000000000000000000000000000000000040000000001000000000000000000000000180000000000000000000000000000000000000000000000000000000000000000000000000000000000000000000000000000000000000000000000000000000008000000000000000000000000000000000000000000000000000000000000000000000000000000000000000000000000000000000040000000000000000000000000000000000000000000000000000000000000000000",
      "type": "0x0",
      "transactionHash": "0xbfe1dfb6e7a9ee81ab2f52ebf81f3a396865f93d3caac3b4dc38178b0a8601c4",
      "transactionIndex": "0x6",
      "blockHash": "0x044f8839ee1efa705a31848517c74d0790a69b0aedd872f462d7f9e5f476446e",
      "blockNumber": "0x112b905",
      "gasUsed": "0x2f5fe",
      "effectiveGasPrice": "0xf4346",
      "from": "0xbebaf2a9ad714feb9dd151d81dd6d61ae0535646",
      "to": "0xa3b865dc7c87b49919b592396feb203c364c9537",
      "contractAddress": null,
      "l1BaseFeeScalar": "0x44d",
      "l1BlobBaseFee": "0x1",
      "l1BlobBaseFeeScalar": "0xa118b",
      "l1Fee": "0x4986338b",
      "l1GasPrice": "0x257d4e33",
      "l1GasUsed": "0x6f5"
    },
    {
      "status": "0x1",
      "cumulativeGasUsed": "0x7c6f5",
      "logs": [
        {
          "address": "0xa3b865dc7c87b49919b592396feb203c364c9537",
          "topics": [
            "0x03e8a4f56d46193161e46e470759c85ad86e6342f38c53206e51662df10c510d",
            "0x0000000000000000000000000000000000000000000000000000000000000001"
          ],
          "data": "0x000000000000000000000000000000000000000000000000000000000000000700000000000000000000000000000000000000000000000000000000000000000000000000000000000000000000000000000000000000000000000000000008",
          "blockHash": "0x3c63d79fbf51267bb6882cc4e8b3bbebd67f0dd4d193799fa39f1456fb4c0141",
          "blockNumber": "0x112b906",
          "transactionHash": "0x12a8270ab38b8c9d5d1c5173c07d7528eadca6049b60015ab28d0dd483a2fd4f",
          "transactionIndex": "0x5",
          "logIndex": "0x7",
          "removed": false
        }
      ],
      "logsBloom": "0x00000000000000000000000000000000000000000000000000000000000100000000000000000000000000000000000000000000000000000000000000040000000000000000000000000000000000000000000000040000000001000000000000000000000000100000000000000000000000000000000000000000000000000000000000000000000000000000000000000000000000000000000000000000020000000000000000000000002000000000000000000000000000000000000000000000000000000000004000000000000000000000000000000000000040000000000000000000000000000000000000000000000000000000000000000000",
      "type": "0x0",
      "transactionHash": "0x12a8270ab38b8c9d5d1c5173c07d7528eadca6049b60015ab28d0dd483a2fd4f",
      "transactionIndex": "0x5",
      "blockHash": "0x3c63d79fbf51267bb6882cc4e8b3bbebd67f0dd4d193799fa39f1456fb4c0141",
      "blockNumber": "0x112b906",
      "gasUsed": "0x178c8",
      "effectiveGasPrice": "0xf4346",
      "from": "0xbebaf2a9ad714feb9dd151d81dd6d61ae0535646",
      "to": "0xa3b865dc7c87b49919b592396feb203c364c9537",
      "contractAddress": null,
      "l1BaseFeeScalar": "0x44d",
      "l1BlobBaseFee": "0x1",
      "l1BlobBaseFeeScalar": "0xa118b",
      "l1Fee": "0x420a9d43",
      "l1GasPrice": "0x257d4e33",
      "l1GasUsed": "0x640"
    },
    {
      "status": "0x1",
      "cumulativeGasUsed": "0x8862d",
      "logs": [
        {
          "address": "0xa7ab21686d40aa35cb51137a795d84a57352f593",
          "topics": [
            "0xddf252ad1be2c89b69c2b068fc378daa952ba7f163c4a11628f55a4df523b3ef",
            "0x000000000000000000000000a3b865dc7c87b49919b592396feb203c364c9537",
            "0x000000000000000000000000bebaf2a9ad714feb9dd151d81dd6d61ae0535646"
          ],
          "data": "0x0000000000000000000000000000000000000000000000007b3c18f3a5780000",
          "blockHash": "0x3c63d79fbf51267bb6882cc4e8b3bbebd67f0dd4d193799fa39f1456fb4c0141",
          "blockNumber": "0x112b906",
          "transactionHash": "0xf16dec8a271de4e7418142990806641346b72965bd24782dbd58dcc6aef1b187",
          "transactionIndex": "0x6",
          "logIndex": "0x8",
          "removed": false
        },
        {
          "address": "0xa3b865dc7c87b49919b592396feb203c364c9537",
          "topics": [
            "0xfc6ecd966b430510beae9124efe7dd517ed5286d7ed0ae258f8556c7a9765a44",
            "0x0000000000000000000000000000000000000000000000000000000000000001",
            "0x000000000000000000000000bebaf2a9ad714feb9dd151d81dd6d61ae0535646"
          ],
          "data": "0x00000000000000000000000000000000000000000000000000000000000000010000000000000000000000000000000000000000000000007b3c18f3a5780000",
          "blockHash": "0x3c63d79fbf51267bb6882cc4e8b3bbebd67f0dd4d193799fa39f1456fb4c0141",
          "blockNumber": "0x112b906",
          "transactionHash": "0xf16dec8a271de4e7418142990806641346b72965bd24782dbd58dcc6aef1b187",
          "transactionIndex": "0x6",
          "logIndex": "0x9",
          "removed": false
        }
      ],
      "logsBloom": "0x00000000000000000000000000000000000000000000000000000000000100000000000000000000000000000000000000000000000000000000000000440000000000000000000000000008000040000000000000040000000001080000000000000000000000100000000000000004000000000000000000000010000000000000000000000000000000000000000000000000000000000000000000000000000000000008000000000000000000000000000000000000000000000000000000000002000000000000000004000020000000000000000000008000000040000200000000008000000000000000000000000000000000000800004000000000",
      "type": "0x0",
      "transactionHash": "0xf16dec8a271de4e7418142990806641346b72965bd24782dbd58dcc6aef1b187",
      "transactionIndex": "0x6",
      "blockHash": "0x3c63d79fbf51267bb6882cc4e8b3bbebd67f0dd4d193799fa39f1456fb4c0141",
      "blockNumber": "0x112b906",
      "gasUsed": "0xbf38",
      "effectiveGasPrice": "0xf4346",
      "from": "0xbebaf2a9ad714feb9dd151d81dd6d61ae0535646",
      "to": "0xa3b865dc7c87b49919b592396feb203c364c9537",
      "contractAddress": null,
      "l1BaseFeeScalar": "0x44d",
      "l1BlobBaseFee": "0x1",
      "l1BlobBaseFeeScalar": "0xa118b",
      "l1Fee": "0x420a9d43",
      "l1GasPrice": "0x257d4e33",
      "l1GasUsed": "0x640"
    }
  ],
  "libraries": [],
  "pending": [],
  "returns": {},
  "timestamp": 1731776753,
  "chain": 84532,
  "commit": "556dc15"
}