{
  "transactions": [
    {
      "hash": "0x550638ed7b8d26e3360148920536bd71e383fbee3b0c4e5d9953dca2b4974326",
      "transactionType": "CALL",
      "contractName": null,
      "contractAddress": "0xa7ab21686d40aa35cb51137a795d84a57352f593",
      "function": "mint(address,uint256)",
      "arguments": [
        "0xBEbAF2a9ad714fEb9Dd151d81Dd6d61Ae0535646",
        "10000000000000000000000"
      ],
      "transaction": {
        "from": "0xbebaf2a9ad714feb9dd151d81dd6d61ae0535646",
        "to": "0xa7ab21686d40aa35cb51137a795d84a57352f593",
        "gas": "0xb7ba",
        "value": "0x0",
        "input": "0x40c10f19000000000000000000000000bebaf2a9ad714feb9dd151d81dd6d61ae053564600000000000000000000000000000000000000000000021e19e0c9bab2400000",
        "nonce": "0x27",
        "chainId": "0x14a34"
      },
      "additionalContracts": [],
      "isFixedGasLimit": false
    }
  ],
  "receipts": [
    {
      "status": "0x1",
      "cumulativeGasUsed": "0xf6974",
      "logs": [
        {
          "address": "0xa7ab21686d40aa35cb51137a795d84a57352f593",
          "topics": [
            "0xddf252ad1be2c89b69c2b068fc378daa952ba7f163c4a11628f55a4df523b3ef",
            "0x0000000000000000000000000000000000000000000000000000000000000000",
            "0x000000000000000000000000bebaf2a9ad714feb9dd151d81dd6d61ae0535646"
          ],
          "data": "0x00000000000000000000000000000000000000000000021e19e0c9bab2400000",
          "blockHash": "0xfa69f274f40057df41332e06e29526416b6e1951c8b2c38ebf61b2ff56ddb7ba",
          "blockNumber": "0x112b801",
          "transactionHash": "0x550638ed7b8d26e3360148920536bd71e383fbee3b0c4e5d9953dca2b4974326",
          "transactionIndex": "0x8",
          "logIndex": "0xe",
          "removed": false
        }
      ],
      "logsBloom": "0x00000000000000000000000000000000000000000000000000000000000000000000000000000000000000000000000000000000000000000000000000400000000000000000000000000008000000000000000000000000000000080000000000000000020000000000000000000800000000000000000000000010000000000000000000000000000000000000000000000000000000000000000000000000000000000008000000000000000000000000000000000000000000000000000000000002000000000000000000000020000000000000000000008000000020000000000000000000000000000000000000000000000000000800000000000000",
      "type": "0x0",
      "transactionHash": "0x550638ed7b8d26e3360148920536bd71e383fbee3b0c4e5d9953dca2b4974326",
      "transactionIndex": "0x8",
      "blockHash": "0xfa69f274f40057df41332e06e29526416b6e1951c8b2c38ebf61b2ff56ddb7ba",
      "blockNumber": "0x112b801",
      "gasUsed": "0x8504",
      "effectiveGasPrice": "0xf4348",
      "from": "0xbebaf2a9ad714feb9dd151d81dd6d61ae0535646",
      "to": "0xa7ab21686d40aa35cb51137a795d84a57352f593",
      "contractAddress": null,
      "l1BaseFeeScalar": "0x44d",
      "l1BlobBaseFee": "0x1",
      "l1BlobBaseFeeScalar": "0xa118b",
      "l1Fee": "0x2f568306",
      "l1GasPrice": "0x1adf437d",
      "l1GasUsed": "0x640"
    }
  ],
  "libraries": [],
  "pending": [],
  "returns": {},
  "timestamp": 1731776233,
  "chain": 84532,
  "commit": "556dc15"
}